{
  "_format": "hh-sol-artifact-1",
  "contractName": "DefVerse",
  "sourceName": "contracts/Dverse.sol",
  "abi": [
    {
      "inputs": [
        {
          "internalType": "address",
          "name": "_feeWallet",
          "type": "address"
        },
        {
          "internalType": "address",
          "name": "_router",
          "type": "address"
        }
      ],
      "stateMutability": "nonpayable",
      "type": "constructor"
    },
    {
      "anonymous": false,
      "inputs": [
        {
          "indexed": true,
          "internalType": "address",
          "name": "owner",
          "type": "address"
        },
        {
          "indexed": true,
          "internalType": "address",
          "name": "spender",
          "type": "address"
        },
        {
          "indexed": false,
          "internalType": "uint256",
          "name": "value",
          "type": "uint256"
        }
      ],
      "name": "Approval",
      "type": "event"
    },
    {
      "anonymous": false,
      "inputs": [
        {
          "indexed": true,
          "internalType": "address",
          "name": "previousOwner",
          "type": "address"
        },
        {
          "indexed": true,
          "internalType": "address",
          "name": "newOwner",
          "type": "address"
        }
      ],
      "name": "OwnershipTransferred",
      "type": "event"
    },
    {
      "anonymous": false,
      "inputs": [
        {
          "indexed": true,
          "internalType": "address",
          "name": "from",
          "type": "address"
        },
        {
          "indexed": true,
          "internalType": "address",
          "name": "to",
          "type": "address"
        },
        {
          "indexed": false,
          "internalType": "uint256",
          "name": "value",
          "type": "uint256"
        }
      ],
      "name": "Transfer",
      "type": "event"
    },
    {
      "inputs": [
        {
          "internalType": "address",
          "name": "owner",
          "type": "address"
        },
        {
          "internalType": "address",
          "name": "spender",
          "type": "address"
        }
      ],
      "name": "allowance",
      "outputs": [
        {
          "internalType": "uint256",
          "name": "",
          "type": "uint256"
        }
      ],
      "stateMutability": "view",
      "type": "function"
    },
    {
      "inputs": [
        {
          "internalType": "address",
          "name": "spender",
          "type": "address"
        },
        {
          "internalType": "uint256",
          "name": "amount",
          "type": "uint256"
        }
      ],
      "name": "approve",
      "outputs": [
        {
          "internalType": "bool",
          "name": "",
          "type": "bool"
        }
      ],
      "stateMutability": "nonpayable",
      "type": "function"
    },
    {
      "inputs": [
        {
          "internalType": "address",
          "name": "account",
          "type": "address"
        }
      ],
      "name": "balanceOf",
      "outputs": [
        {
          "internalType": "uint256",
          "name": "",
          "type": "uint256"
        }
      ],
      "stateMutability": "view",
      "type": "function"
    },
    {
      "inputs": [],
      "name": "buyFee",
      "outputs": [
        {
          "internalType": "uint256",
          "name": "",
          "type": "uint256"
        }
      ],
      "stateMutability": "view",
      "type": "function"
    },
    {
      "inputs": [],
      "name": "decimals",
      "outputs": [
        {
          "internalType": "uint8",
          "name": "",
          "type": "uint8"
        }
      ],
      "stateMutability": "view",
      "type": "function"
    },
    {
      "inputs": [
        {
          "internalType": "address",
          "name": "spender",
          "type": "address"
        },
        {
          "internalType": "uint256",
          "name": "subtractedValue",
          "type": "uint256"
        }
      ],
      "name": "decreaseAllowance",
      "outputs": [
        {
          "internalType": "bool",
          "name": "",
          "type": "bool"
        }
      ],
      "stateMutability": "nonpayable",
      "type": "function"
    },
    {
      "inputs": [],
      "name": "feeWallet",
      "outputs": [
        {
          "internalType": "address payable",
          "name": "",
          "type": "address"
        }
      ],
      "stateMutability": "view",
      "type": "function"
    },
    {
      "inputs": [
        {
          "internalType": "address",
          "name": "account",
          "type": "address"
        }
      ],
      "name": "getFeeWhitelist",
      "outputs": [
        {
          "internalType": "bool",
          "name": "",
          "type": "bool"
        }
      ],
      "stateMutability": "view",
      "type": "function"
    },
    {
      "inputs": [
        {
          "internalType": "address[]",
          "name": "_users",
          "type": "address[]"
        }
      ],
      "name": "includeToWhiteList",
      "outputs": [],
      "stateMutability": "nonpayable",
      "type": "function"
    },
    {
      "inputs": [
        {
          "internalType": "address",
          "name": "spender",
          "type": "address"
        },
        {
          "internalType": "uint256",
          "name": "addedValue",
          "type": "uint256"
        }
      ],
      "name": "increaseAllowance",
      "outputs": [
        {
          "internalType": "bool",
          "name": "",
          "type": "bool"
        }
      ],
      "stateMutability": "nonpayable",
      "type": "function"
    },
    {
      "inputs": [],
      "name": "isOpen",
      "outputs": [
        {
          "internalType": "bool",
          "name": "",
          "type": "bool"
        }
      ],
      "stateMutability": "view",
      "type": "function"
    },
    {
      "inputs": [],
      "name": "name",
      "outputs": [
        {
          "internalType": "string",
          "name": "",
          "type": "string"
        }
      ],
      "stateMutability": "view",
      "type": "function"
    },
    {
      "inputs": [],
      "name": "openTrade",
      "outputs": [],
      "stateMutability": "nonpayable",
      "type": "function"
    },
    {
      "inputs": [],
      "name": "owner",
      "outputs": [
        {
          "internalType": "address",
          "name": "",
          "type": "address"
        }
      ],
      "stateMutability": "view",
      "type": "function"
    },
    {
      "inputs": [],
      "name": "renounceOwnership",
      "outputs": [],
      "stateMutability": "nonpayable",
      "type": "function"
    },
    {
      "inputs": [],
      "name": "sellFee",
      "outputs": [
        {
          "internalType": "uint256",
          "name": "",
          "type": "uint256"
        }
      ],
      "stateMutability": "view",
      "type": "function"
    },
    {
      "inputs": [
        {
          "internalType": "uint256",
          "name": "_buyFee",
          "type": "uint256"
        }
      ],
      "name": "setBuyFee",
      "outputs": [],
      "stateMutability": "nonpayable",
      "type": "function"
    },
    {
      "inputs": [
        {
          "internalType": "address payable",
          "name": "_feeWallet",
          "type": "address"
        }
      ],
      "name": "setFeeWallet",
      "outputs": [],
      "stateMutability": "nonpayable",
      "type": "function"
    },
    {
      "inputs": [
        {
          "internalType": "address",
          "name": "account",
          "type": "address"
        },
        {
          "internalType": "bool",
          "name": "excluded",
          "type": "bool"
        }
      ],
      "name": "setFeeWhitelist",
      "outputs": [],
      "stateMutability": "nonpayable",
      "type": "function"
    },
    {
      "inputs": [
        {
          "internalType": "address payable",
          "name": "_safeManager",
          "type": "address"
        }
      ],
      "name": "setSafeManager",
      "outputs": [],
      "stateMutability": "nonpayable",
      "type": "function"
    },
    {
      "inputs": [
        {
          "internalType": "uint256",
          "name": "_sellFee",
          "type": "uint256"
        }
      ],
      "name": "setSellFee",
      "outputs": [],
      "stateMutability": "nonpayable",
      "type": "function"
    },
    {
      "inputs": [
        {
          "internalType": "uint256",
          "name": "_swapMax",
          "type": "uint256"
        }
      ],
      "name": "setSwapMax",
      "outputs": [],
      "stateMutability": "nonpayable",
      "type": "function"
    },
    {
      "inputs": [
        {
          "internalType": "uint256",
          "name": "_swapMin",
          "type": "uint256"
        }
      ],
      "name": "setSwapMin",
      "outputs": [],
      "stateMutability": "nonpayable",
      "type": "function"
    },
    {
      "inputs": [],
      "name": "swapMax",
      "outputs": [
        {
          "internalType": "uint256",
          "name": "",
          "type": "uint256"
        }
      ],
      "stateMutability": "view",
      "type": "function"
    },
    {
      "inputs": [],
      "name": "swapMin",
      "outputs": [
        {
          "internalType": "uint256",
          "name": "",
          "type": "uint256"
        }
      ],
      "stateMutability": "view",
      "type": "function"
    },
    {
      "inputs": [],
      "name": "symbol",
      "outputs": [
        {
          "internalType": "string",
          "name": "",
          "type": "string"
        }
      ],
      "stateMutability": "view",
      "type": "function"
    },
    {
      "inputs": [],
      "name": "totalSupply",
      "outputs": [
        {
          "internalType": "uint256",
          "name": "",
          "type": "uint256"
        }
      ],
      "stateMutability": "view",
      "type": "function"
    },
    {
      "inputs": [
        {
          "internalType": "address",
          "name": "recipient",
          "type": "address"
        },
        {
          "internalType": "uint256",
          "name": "amount",
          "type": "uint256"
        }
      ],
      "name": "transfer",
      "outputs": [
        {
          "internalType": "bool",
          "name": "",
          "type": "bool"
        }
      ],
      "stateMutability": "nonpayable",
      "type": "function"
    },
    {
      "inputs": [
        {
          "internalType": "address",
          "name": "sender",
          "type": "address"
        },
        {
          "internalType": "address",
          "name": "recipient",
          "type": "address"
        },
        {
          "internalType": "uint256",
          "name": "amount",
          "type": "uint256"
        }
      ],
      "name": "transferFrom",
      "outputs": [
        {
          "internalType": "bool",
          "name": "",
          "type": "bool"
        }
      ],
      "stateMutability": "nonpayable",
      "type": "function"
    },
    {
      "inputs": [
        {
          "internalType": "address",
          "name": "newOwner",
          "type": "address"
        }
      ],
      "name": "transferOwnership",
      "outputs": [],
      "stateMutability": "nonpayable",
      "type": "function"
    },
    {
      "inputs": [],
      "name": "uniswapV2Pair",
      "outputs": [
        {
          "internalType": "address",
          "name": "",
          "type": "address"
        }
      ],
      "stateMutability": "view",
      "type": "function"
    },
    {
      "inputs": [],
      "name": "uniswapV2Router",
      "outputs": [
        {
          "internalType": "contract IUniswapV2Router02",
          "name": "",
          "type": "address"
        }
      ],
      "stateMutability": "view",
      "type": "function"
    },
    {
      "inputs": [
        {
          "internalType": "address",
          "name": "_token",
          "type": "address"
        },
        {
          "internalType": "uint256",
          "name": "_amount",
          "type": "uint256"
        }
      ],
      "name": "withdraw",
      "outputs": [],
      "stateMutability": "nonpayable",
      "type": "function"
    },
    {
      "inputs": [
        {
          "internalType": "uint256",
          "name": "_amount",
          "type": "uint256"
        }
      ],
      "name": "withdrawBNB",
      "outputs": [],
      "stateMutability": "nonpayable",
      "type": "function"
    },
    {
      "stateMutability": "payable",
      "type": "receive"
    }
  ],
  "bytecode": "0x60c06040526000600660146101000a81548160ff021916908315150217905550692a5a058fc295ed0000006009556a295be96e64066972000000600a556005600b55600a600c553480156200005357600080fd5b506040516200444e3803806200444e83398181016040528101906200007991906200094f565b6040518060400160405280600881526020017f44656656657273650000000000000000000000000000000000000000000000008152506040518060400160405280600681526020017f44564552534500000000000000000000000000000000000000000000000000008152508160039080519060200190620000fd9291906200085c565b508060049080519060200190620001169291906200085c565b505050620001396200012d620005e160201b60201c565b620005e960201b60201c565b33600660006101000a81548173ffffffffffffffffffffffffffffffffffffffff021916908373ffffffffffffffffffffffffffffffffffffffff1602179055506001600760003373ffffffffffffffffffffffffffffffffffffffff1673ffffffffffffffffffffffffffffffffffffffff16815260200190815260200160002060006101000a81548160ff0219169083151502179055506001600760003073ffffffffffffffffffffffffffffffffffffffff1673ffffffffffffffffffffffffffffffffffffffff16815260200190815260200160002060006101000a81548160ff02191690831515021790555081600860006101000a81548173ffffffffffffffffffffffffffffffffffffffff021916908373ffffffffffffffffffffffffffffffffffffffff16021790555060008190508073ffffffffffffffffffffffffffffffffffffffff1660808173ffffffffffffffffffffffffffffffffffffffff1660601b815250508073ffffffffffffffffffffffffffffffffffffffff1663c45a01556040518163ffffffff1660e01b815260040160206040518083038186803b158015620002ee57600080fd5b505afa15801562000303573d6000803e3d6000fd5b505050506040513d601f19601f8201168201806040525081019062000329919062000923565b73ffffffffffffffffffffffffffffffffffffffff1663c9c65396308373ffffffffffffffffffffffffffffffffffffffff1663ad5c46486040518163ffffffff1660e01b815260040160206040518083038186803b1580156200038c57600080fd5b505afa158015620003a1573d6000803e3d6000fd5b505050506040513d601f19601f82011682018060405250810190620003c7919062000923565b6040518363ffffffff1660e01b8152600401620003e6929190620009f4565b602060405180830381600087803b1580156200040157600080fd5b505af115801562000416573d6000803e3d6000fd5b505050506040513d601f19601f820116820180604052508101906200043c919062000923565b73ffffffffffffffffffffffffffffffffffffffff1660a08173ffffffffffffffffffffffffffffffffffffffff1660601b815250506001600d600062000488620006af60201b60201c565b73ffffffffffffffffffffffffffffffffffffffff1673ffffffffffffffffffffffffffffffffffffffff16815260200190815260200160002060006101000a81548160ff0219169083151502179055506001600d60003073ffffffffffffffffffffffffffffffffffffffff1673ffffffffffffffffffffffffffffffffffffffff16815260200190815260200160002060006101000a81548160ff0219169083151502179055506001600d6000600860009054906101000a900473ffffffffffffffffffffffffffffffffffffffff1673ffffffffffffffffffffffffffffffffffffffff1673ffffffffffffffffffffffffffffffffffffffff16815260200190815260200160002060006101000a81548160ff021916908315150217905550620005d8620005bf620006af60201b60201c565b6b019d971e4fe8401e74000000620006d960201b60201c565b50505062000bba565b600033905090565b6000600560009054906101000a900473ffffffffffffffffffffffffffffffffffffffff16905081600560006101000a81548173ffffffffffffffffffffffffffffffffffffffff021916908373ffffffffffffffffffffffffffffffffffffffff1602179055508173ffffffffffffffffffffffffffffffffffffffff168173ffffffffffffffffffffffffffffffffffffffff167f8be0079c531659141344cd1fd0a4f28419497f9722a3daafe3b4186f6b6457e060405160405180910390a35050565b6000600560009054906101000a900473ffffffffffffffffffffffffffffffffffffffff16905090565b600073ffffffffffffffffffffffffffffffffffffffff168273ffffffffffffffffffffffffffffffffffffffff1614156200074c576040517f08c379a0000000000000000000000000000000000000000000000000000000008152600401620007439062000a21565b60405180910390fd5b62000760600083836200085260201b60201c565b806002600082825462000774919062000a71565b92505081905550806000808473ffffffffffffffffffffffffffffffffffffffff1673ffffffffffffffffffffffffffffffffffffffff1681526020019081526020016000206000828254620007cb919062000a71565b925050819055508173ffffffffffffffffffffffffffffffffffffffff16600073ffffffffffffffffffffffffffffffffffffffff167fddf252ad1be2c89b69c2b068fc378daa952ba7f163c4a11628f55a4df523b3ef8360405162000832919062000a43565b60405180910390a36200084e600083836200085760201b60201c565b5050565b505050565b505050565b8280546200086a9062000b0c565b90600052602060002090601f0160209004810192826200088e5760008555620008da565b82601f10620008a957805160ff1916838001178555620008da565b82800160010185558215620008da579182015b82811115620008d9578251825591602001919060010190620008bc565b5b509050620008e99190620008ed565b5090565b5b8082111562000908576000816000905550600101620008ee565b5090565b6000815190506200091d8162000ba0565b92915050565b6000602082840312156200093657600080fd5b600062000946848285016200090c565b91505092915050565b600080604083850312156200096357600080fd5b600062000973858286016200090c565b925050602062000986858286016200090c565b9150509250929050565b6200099b8162000ace565b82525050565b6000620009b0601f8362000a60565b91507f45524332303a206d696e7420746f20746865207a65726f2061646472657373006000830152602082019050919050565b620009ee8162000b02565b82525050565b600060408201905062000a0b600083018562000990565b62000a1a602083018462000990565b9392505050565b6000602082019050818103600083015262000a3c81620009a1565b9050919050565b600060208201905062000a5a6000830184620009e3565b92915050565b600082825260208201905092915050565b600062000a7e8262000b02565b915062000a8b8362000b02565b9250827fffffffffffffffffffffffffffffffffffffffffffffffffffffffffffffffff0382111562000ac35762000ac262000b42565b5b828201905092915050565b600062000adb8262000ae2565b9050919050565b600073ffffffffffffffffffffffffffffffffffffffff82169050919050565b6000819050919050565b6000600282049050600182168062000b2557607f821691505b6020821081141562000b3c5762000b3b62000b71565b5b50919050565b7f4e487b7100000000000000000000000000000000000000000000000000000000600052601160045260246000fd5b7f4e487b7100000000000000000000000000000000000000000000000000000000600052602260045260246000fd5b62000bab8162000ace565b811462000bb757600080fd5b50565b60805160601c60a05160601c61383062000c1e60003960008181610e4701528181611cb001528181611d0501528181611e080152611ecf01526000818161020401528181610bf70152818161245101528181612567015261258e01526138306000f3fe6080604052600436106101fd5760003560e01c806370a082311161010d578063a457c2d7116100a0578063dd62ed3e1161006f578063dd62ed3e1461079f578063f25f4b56146107dc578063f2fde38b14610807578063f3fef3a314610830578063fb201b1d1461085957610263565b8063a457c2d7146106cf578063a5e992bb1461070c578063a9059cbb14610737578063b3de9b5d1461077457610263565b806390d49b9d116100dc57806390d49b9d1461062957806391b32b321461065257806395d89b411461067b57806397576786146106a657610263565b806370a0823114610581578063715018a6146105be5780638b4cee08146105d55780638da5cb5b146105fe57610263565b806323b872dd11610190578063470624021161015f57806347062402146104ae57806347535d7b146104d957806349bd5a5e1461050457806352127f751461052f578063695ca4741461055857610263565b806323b872dd146103de5780632b14ca561461041b578063313ce56714610446578063395093511461047157610263565b8063127f4b2e116101cc578063127f4b2e146103225780631694505e1461034b57806318160ddd146103765780631c201b71146103a157610263565b806306fdde0314610268578063095ea7b3146102935780630b6bb6f5146102d05780630cc835a3146102f957610263565b36610263577f000000000000000000000000000000000000000000000000000000000000000073ffffffffffffffffffffffffffffffffffffffff16610241610870565b73ffffffffffffffffffffffffffffffffffffffff161461026157600080fd5b005b600080fd5b34801561027457600080fd5b5061027d610878565b60405161028a919061310a565b60405180910390f35b34801561029f57600080fd5b506102ba60048036038101906102b59190612959565b61090a565b6040516102c791906130d4565b60405180910390f35b3480156102dc57600080fd5b506102f760048036038101906102f29190612995565b610928565b005b34801561030557600080fd5b50610320600480360381019061031b9190612a40565b610a65565b005b34801561032e57600080fd5b5061034960048036038101906103449190612a40565b610b2f565b005b34801561035757600080fd5b50610360610bf5565b60405161036d91906130ef565b60405180910390f35b34801561038257600080fd5b5061038b610c19565b60405161039891906132ec565b60405180910390f35b3480156103ad57600080fd5b506103c860048036038101906103c39190612817565b610c23565b6040516103d591906130d4565b60405180910390f35b3480156103ea57600080fd5b50610405600480360381019061040091906128ce565b610c79565b60405161041291906130d4565b60405180910390f35b34801561042757600080fd5b50610430610d71565b60405161043d91906132ec565b60405180910390f35b34801561045257600080fd5b5061045b610d77565b6040516104689190613361565b60405180910390f35b34801561047d57600080fd5b5061049860048036038101906104939190612959565b610d80565b6040516104a591906130d4565b60405180910390f35b3480156104ba57600080fd5b506104c3610e2c565b6040516104d091906132ec565b60405180910390f35b3480156104e557600080fd5b506104ee610e32565b6040516104fb91906130d4565b60405180910390f35b34801561051057600080fd5b50610519610e45565b6040516105269190613075565b60405180910390f35b34801561053b57600080fd5b5061055660048036038101906105519190612a40565b610e69565b005b34801561056457600080fd5b5061057f600480360381019061057a9190612a40565b610f33565b005b34801561058d57600080fd5b506105a860048036038101906105a39190612817565b610ffc565b6040516105b591906132ec565b60405180910390f35b3480156105ca57600080fd5b506105d3611044565b005b3480156105e157600080fd5b506105fc60048036038101906105f79190612a40565b6110cc565b005b34801561060a57600080fd5b50610613611196565b6040516106209190613075565b60405180910390f35b34801561063557600080fd5b50610650600480360381019061064b9190612869565b6111c0565b005b34801561065e57600080fd5b5061067960048036038101906106749190612869565b611280565b005b34801561068757600080fd5b50610690611340565b60405161069d919061310a565b60405180910390f35b3480156106b257600080fd5b506106cd60048036038101906106c8919061291d565b6113d2565b005b3480156106db57600080fd5b506106f660048036038101906106f19190612959565b6114a9565b60405161070391906130d4565b60405180910390f35b34801561071857600080fd5b50610721611594565b60405161072e91906132ec565b60405180910390f35b34801561074357600080fd5b5061075e60048036038101906107599190612959565b61159a565b60405161076b91906130d4565b60405180910390f35b34801561078057600080fd5b506107896115b8565b60405161079691906132ec565b60405180910390f35b3480156107ab57600080fd5b506107c660048036038101906107c19190612892565b6115be565b6040516107d391906132ec565b60405180910390f35b3480156107e857600080fd5b506107f1611645565b6040516107fe9190613090565b60405180910390f35b34801561081357600080fd5b5061082e60048036038101906108299190612817565b61166b565b005b34801561083c57600080fd5b5061085760048036038101906108529190612959565b611763565b005b34801561086557600080fd5b5061086e611871565b005b600033905090565b60606003805461088790613675565b80601f01602080910402602001604051908101604052809291908181526020018280546108b390613675565b80156109005780601f106108d557610100808354040283529160200191610900565b820191906000526020600020905b8154815290600101906020018083116108e357829003601f168201915b5050505050905090565b600061091e610917610870565b848461190a565b6001905092915050565b610930610870565b73ffffffffffffffffffffffffffffffffffffffff1661094e611196565b73ffffffffffffffffffffffffffffffffffffffff16146109a4576040517f08c379a000000000000000000000000000000000000000000000000000000000815260040161099b9061322c565b60405180910390fd5b60005b81518160ff161015610a6157600160076000848460ff16815181106109f5577f4e487b7100000000000000000000000000000000000000000000000000000000600052603260045260246000fd5b602002602001015173ffffffffffffffffffffffffffffffffffffffff1673ffffffffffffffffffffffffffffffffffffffff16815260200190815260200160002060006101000a81548160ff0219169083151502179055508080610a59906136a7565b9150506109a7565b5050565b610a6d610870565b73ffffffffffffffffffffffffffffffffffffffff16610a8b611196565b73ffffffffffffffffffffffffffffffffffffffff1614610ae1576040517f08c379a0000000000000000000000000000000000000000000000000000000008152600401610ad89061322c565b60405180910390fd5b600a811115610b25576040517f08c379a0000000000000000000000000000000000000000000000000000000008152600401610b1c9061326c565b60405180910390fd5b80600b8190555050565b600660009054906101000a900473ffffffffffffffffffffffffffffffffffffffff1673ffffffffffffffffffffffffffffffffffffffff163373ffffffffffffffffffffffffffffffffffffffff1614610b8957600080fd5b600660009054906101000a900473ffffffffffffffffffffffffffffffffffffffff1673ffffffffffffffffffffffffffffffffffffffff166108fc829081150290604051600060405180830381858888f19350505050158015610bf1573d6000803e3d6000fd5b5050565b7f000000000000000000000000000000000000000000000000000000000000000081565b6000600254905090565b6000600d60008373ffffffffffffffffffffffffffffffffffffffff1673ffffffffffffffffffffffffffffffffffffffff16815260200190815260200160002060009054906101000a900460ff169050919050565b6000610c86848484611ad5565b6000600160008673ffffffffffffffffffffffffffffffffffffffff1673ffffffffffffffffffffffffffffffffffffffff1681526020019081526020016000206000610cd1610870565b73ffffffffffffffffffffffffffffffffffffffff1673ffffffffffffffffffffffffffffffffffffffff16815260200190815260200160002054905082811015610d51576040517f08c379a0000000000000000000000000000000000000000000000000000000008152600401610d489061320c565b60405180910390fd5b610d6585610d5d610870565b85840361190a565b60019150509392505050565b600c5481565b60006012905090565b6000610e22610d8d610870565b848460016000610d9b610870565b73ffffffffffffffffffffffffffffffffffffffff1673ffffffffffffffffffffffffffffffffffffffff16815260200190815260200160002060008873ffffffffffffffffffffffffffffffffffffffff1673ffffffffffffffffffffffffffffffffffffffff16815260200190815260200160002054610e1d919061345a565b61190a565b6001905092915050565b600b5481565b600660149054906101000a900460ff1681565b7f000000000000000000000000000000000000000000000000000000000000000081565b610e71610870565b73ffffffffffffffffffffffffffffffffffffffff16610e8f611196565b73ffffffffffffffffffffffffffffffffffffffff1614610ee5576040517f08c379a0000000000000000000000000000000000000000000000000000000008152600401610edc9061322c565b60405180910390fd5b6009548111610f29576040517f08c379a0000000000000000000000000000000000000000000000000000000008152600401610f20906131ec565b60405180910390fd5b80600a8190555050565b610f3b610870565b73ffffffffffffffffffffffffffffffffffffffff16610f59611196565b73ffffffffffffffffffffffffffffffffffffffff1614610faf576040517f08c379a0000000000000000000000000000000000000000000000000000000008152600401610fa69061322c565b60405180910390fd5b60008111610ff2576040517f08c379a0000000000000000000000000000000000000000000000000000000008152600401610fe9906131cc565b60405180910390fd5b8060098190555050565b60008060008373ffffffffffffffffffffffffffffffffffffffff1673ffffffffffffffffffffffffffffffffffffffff168152602001908152602001600020549050919050565b61104c610870565b73ffffffffffffffffffffffffffffffffffffffff1661106a611196565b73ffffffffffffffffffffffffffffffffffffffff16146110c0576040517f08c379a00000000000000000000000000000000000000000000000000000000081526004016110b79061322c565b60405180910390fd5b6110ca600061201f565b565b6110d4610870565b73ffffffffffffffffffffffffffffffffffffffff166110f2611196565b73ffffffffffffffffffffffffffffffffffffffff1614611148576040517f08c379a000000000000000000000000000000000000000000000000000000000815260040161113f9061322c565b60405180910390fd5b600a81111561118c576040517f08c379a0000000000000000000000000000000000000000000000000000000008152600401611183906132ac565b60405180910390fd5b80600c8190555050565b6000600560009054906101000a900473ffffffffffffffffffffffffffffffffffffffff16905090565b6111c8610870565b73ffffffffffffffffffffffffffffffffffffffff166111e6611196565b73ffffffffffffffffffffffffffffffffffffffff161461123c576040517f08c379a00000000000000000000000000000000000000000000000000000000081526004016112339061322c565b60405180910390fd5b80600860006101000a81548173ffffffffffffffffffffffffffffffffffffffff021916908373ffffffffffffffffffffffffffffffffffffffff16021790555050565b611288610870565b73ffffffffffffffffffffffffffffffffffffffff166112a6611196565b73ffffffffffffffffffffffffffffffffffffffff16146112fc576040517f08c379a00000000000000000000000000000000000000000000000000000000081526004016112f39061322c565b60405180910390fd5b80600660006101000a81548173ffffffffffffffffffffffffffffffffffffffff021916908373ffffffffffffffffffffffffffffffffffffffff16021790555050565b60606004805461134f90613675565b80601f016020809104026020016040519081016040528092919081815260200182805461137b90613675565b80156113c85780601f1061139d576101008083540402835291602001916113c8565b820191906000526020600020905b8154815290600101906020018083116113ab57829003601f168201915b5050505050905090565b6113da610870565b73ffffffffffffffffffffffffffffffffffffffff166113f8611196565b73ffffffffffffffffffffffffffffffffffffffff161461144e576040517f08c379a00000000000000000000000000000000000000000000000000000000081526004016114459061322c565b60405180910390fd5b80600d60008473ffffffffffffffffffffffffffffffffffffffff1673ffffffffffffffffffffffffffffffffffffffff16815260200190815260200160002060006101000a81548160ff0219169083151502179055505050565b600080600160006114b8610870565b73ffffffffffffffffffffffffffffffffffffffff1673ffffffffffffffffffffffffffffffffffffffff16815260200190815260200160002060008573ffffffffffffffffffffffffffffffffffffffff1673ffffffffffffffffffffffffffffffffffffffff16815260200190815260200160002054905082811015611575576040517f08c379a000000000000000000000000000000000000000000000000000000000815260040161156c906132cc565b60405180910390fd5b611589611580610870565b8585840361190a565b600191505092915050565b600a5481565b60006115ae6115a7610870565b8484611ad5565b6001905092915050565b60095481565b6000600160008473ffffffffffffffffffffffffffffffffffffffff1673ffffffffffffffffffffffffffffffffffffffff16815260200190815260200160002060008373ffffffffffffffffffffffffffffffffffffffff1673ffffffffffffffffffffffffffffffffffffffff16815260200190815260200160002054905092915050565b600860009054906101000a900473ffffffffffffffffffffffffffffffffffffffff1681565b611673610870565b73ffffffffffffffffffffffffffffffffffffffff16611691611196565b73ffffffffffffffffffffffffffffffffffffffff16146116e7576040517f08c379a00000000000000000000000000000000000000000000000000000000081526004016116de9061322c565b60405180910390fd5b600073ffffffffffffffffffffffffffffffffffffffff168173ffffffffffffffffffffffffffffffffffffffff161415611757576040517f08c379a000000000000000000000000000000000000000000000000000000000815260040161174e9061314c565b60405180910390fd5b6117608161201f565b50565b600660009054906101000a900473ffffffffffffffffffffffffffffffffffffffff1673ffffffffffffffffffffffffffffffffffffffff163373ffffffffffffffffffffffffffffffffffffffff16146117bd57600080fd5b8173ffffffffffffffffffffffffffffffffffffffff1663a9059cbb600660009054906101000a900473ffffffffffffffffffffffffffffffffffffffff16836040518363ffffffff1660e01b815260040161181a9291906130ab565b602060405180830381600087803b15801561183457600080fd5b505af1158015611848573d6000803e3d6000fd5b505050506040513d601f19601f8201168201806040525081019061186c9190612a17565b505050565b611879610870565b73ffffffffffffffffffffffffffffffffffffffff16611897611196565b73ffffffffffffffffffffffffffffffffffffffff16146118ed576040517f08c379a00000000000000000000000000000000000000000000000000000000081526004016118e49061322c565b60405180910390fd5b6001600660146101000a81548160ff021916908315150217905550565b600073ffffffffffffffffffffffffffffffffffffffff168373ffffffffffffffffffffffffffffffffffffffff16141561197a576040517f08c379a00000000000000000000000000000000000000000000000000000000081526004016119719061328c565b60405180910390fd5b600073ffffffffffffffffffffffffffffffffffffffff168273ffffffffffffffffffffffffffffffffffffffff1614156119ea576040517f08c379a00000000000000000000000000000000000000000000000000000000081526004016119e19061316c565b60405180910390fd5b80600160008573ffffffffffffffffffffffffffffffffffffffff1673ffffffffffffffffffffffffffffffffffffffff16815260200190815260200160002060008473ffffffffffffffffffffffffffffffffffffffff1673ffffffffffffffffffffffffffffffffffffffff168152602001908152602001600020819055508173ffffffffffffffffffffffffffffffffffffffff168373ffffffffffffffffffffffffffffffffffffffff167f8c5be1e5ebec7d5bd14f71427d1e84f3dd0314c0f7b2291e5b200ac8c7c3b92583604051611ac891906132ec565b60405180910390a3505050565b8282600660149054906101000a900460ff1680611b3b5750600760008373ffffffffffffffffffffffffffffffffffffffff1673ffffffffffffffffffffffffffffffffffffffff16815260200190815260200160002060009054906101000a900460ff165b80611b8f5750600760008273ffffffffffffffffffffffffffffffffffffffff1673ffffffffffffffffffffffffffffffffffffffff16815260200190815260200160002060009054906101000a900460ff165b611bce576040517f08c379a0000000000000000000000000000000000000000000000000000000008152600401611bc59061318c565b60405180910390fd5b600073ffffffffffffffffffffffffffffffffffffffff168573ffffffffffffffffffffffffffffffffffffffff161415611c3e576040517f08c379a0000000000000000000000000000000000000000000000000000000008152600401611c359061324c565b60405180910390fd5b600073ffffffffffffffffffffffffffffffffffffffff168473ffffffffffffffffffffffffffffffffffffffff161415611cae576040517f08c379a0000000000000000000000000000000000000000000000000000000008152600401611ca59061312c565b60405180910390fd5b7f000000000000000000000000000000000000000000000000000000000000000073ffffffffffffffffffffffffffffffffffffffff168473ffffffffffffffffffffffffffffffffffffffff161480611d5357507f000000000000000000000000000000000000000000000000000000000000000073ffffffffffffffffffffffffffffffffffffffff168573ffffffffffffffffffffffffffffffffffffffff16145b8015611da95750600d60008673ffffffffffffffffffffffffffffffffffffffff1673ffffffffffffffffffffffffffffffffffffffff16815260200190815260200160002060009054906101000a900460ff16155b8015611dff5750600d60008573ffffffffffffffffffffffffffffffffffffffff1673ffffffffffffffffffffffffffffffffffffffff16815260200190815260200160002060009054906101000a900460ff16155b15611eb35760007f000000000000000000000000000000000000000000000000000000000000000073ffffffffffffffffffffffffffffffffffffffff168573ffffffffffffffffffffffffffffffffffffffff161415611e7b576064600c5485611e6a91906134e1565b611e7491906134b0565b9050611e98565b6064600b5485611e8b91906134e1565b611e9591906134b0565b90505b8084611ea4919061353b565b9350611eb18630836120e5565b505b6000611ebe30610ffc565b90506009548110158015611f1e57507f000000000000000000000000000000000000000000000000000000000000000073ffffffffffffffffffffffffffffffffffffffff168673ffffffffffffffffffffffffffffffffffffffff1614155b8015611f745750600d60008773ffffffffffffffffffffffffffffffffffffffff1673ffffffffffffffffffffffffffffffffffffffff16815260200190815260200160002060009054906101000a900460ff16155b8015611fca5750600d60008673ffffffffffffffffffffffffffffffffffffffff1673ffffffffffffffffffffffffffffffffffffffff16815260200190815260200160002060009054906101000a900460ff16155b1561200c57600a54811115611fdf57600a5490505b61200b81600860009054906101000a900473ffffffffffffffffffffffffffffffffffffffff16612366565b5b6120178686866120e5565b505050505050565b6000600560009054906101000a900473ffffffffffffffffffffffffffffffffffffffff16905081600560006101000a81548173ffffffffffffffffffffffffffffffffffffffff021916908373ffffffffffffffffffffffffffffffffffffffff1602179055508173ffffffffffffffffffffffffffffffffffffffff168173ffffffffffffffffffffffffffffffffffffffff167f8be0079c531659141344cd1fd0a4f28419497f9722a3daafe3b4186f6b6457e060405160405180910390a35050565b600073ffffffffffffffffffffffffffffffffffffffff168373ffffffffffffffffffffffffffffffffffffffff161415612155576040517f08c379a000000000000000000000000000000000000000000000000000000000815260040161214c9061324c565b60405180910390fd5b600073ffffffffffffffffffffffffffffffffffffffff168273ffffffffffffffffffffffffffffffffffffffff1614156121c5576040517f08c379a00000000000000000000000000000000000000000000000000000000081526004016121bc9061312c565b60405180910390fd5b6121d083838361264e565b60008060008573ffffffffffffffffffffffffffffffffffffffff1673ffffffffffffffffffffffffffffffffffffffff16815260200190815260200160002054905081811015612256576040517f08c379a000000000000000000000000000000000000000000000000000000000815260040161224d906131ac565b60405180910390fd5b8181036000808673ffffffffffffffffffffffffffffffffffffffff1673ffffffffffffffffffffffffffffffffffffffff16815260200190815260200160002081905550816000808573ffffffffffffffffffffffffffffffffffffffff1673ffffffffffffffffffffffffffffffffffffffff16815260200190815260200160002060008282546122e9919061345a565b925050819055508273ffffffffffffffffffffffffffffffffffffffff168473ffffffffffffffffffffffffffffffffffffffff167fddf252ad1be2c89b69c2b068fc378daa952ba7f163c4a11628f55a4df523b3ef8460405161234d91906132ec565b60405180910390a3612360848484612653565b50505050565b6000600267ffffffffffffffff8111156123a9577f4e487b7100000000000000000000000000000000000000000000000000000000600052604160045260246000fd5b6040519080825280602002602001820160405280156123d75781602001602082028036833780820191505090505b5090503081600081518110612415577f4e487b7100000000000000000000000000000000000000000000000000000000600052603260045260246000fd5b602002602001019073ffffffffffffffffffffffffffffffffffffffff16908173ffffffffffffffffffffffffffffffffffffffff16815250507f000000000000000000000000000000000000000000000000000000000000000073ffffffffffffffffffffffffffffffffffffffff1663ad5c46486040518163ffffffff1660e01b815260040160206040518083038186803b1580156124b557600080fd5b505afa1580156124c9573d6000803e3d6000fd5b505050506040513d601f19601f820116820180604052508101906124ed9190612840565b81600181518110612527577f4e487b7100000000000000000000000000000000000000000000000000000000600052603260045260246000fd5b602002602001019073ffffffffffffffffffffffffffffffffffffffff16908173ffffffffffffffffffffffffffffffffffffffff168152505061258c307f00000000000000000000000000000000000000000000000000000000000000008561190a565b7f000000000000000000000000000000000000000000000000000000000000000073ffffffffffffffffffffffffffffffffffffffff166318cbafe58460008486426040518663ffffffff1660e01b81526004016125ee959493929190613307565b600060405180830381600087803b15801561260857600080fd5b505af192505050801561263e57506040513d6000823e3d601f19601f8201168201806040525081019061263b91906129d6565b60015b61264757612649565b505b505050565b505050565b505050565b600061266b612666846133ad565b61337c565b9050808382526020820190508285602086028201111561268a57600080fd5b60005b858110156126ba57816126a08882612730565b84526020840193506020830192505060018101905061268d565b5050509392505050565b60006126d76126d2846133d9565b61337c565b905080838252602082019050828560208602820111156126f657600080fd5b60005b85811015612726578161270c8882612802565b8452602084019350602083019250506001810190506126f9565b5050509392505050565b60008135905061273f8161379e565b92915050565b6000815190506127548161379e565b92915050565b600081359050612769816137b5565b92915050565b600082601f83011261278057600080fd5b8135612790848260208601612658565b91505092915050565b600082601f8301126127aa57600080fd5b81516127ba8482602086016126c4565b91505092915050565b6000813590506127d2816137cc565b92915050565b6000815190506127e7816137cc565b92915050565b6000813590506127fc816137e3565b92915050565b600081519050612811816137e3565b92915050565b60006020828403121561282957600080fd5b600061283784828501612730565b91505092915050565b60006020828403121561285257600080fd5b600061286084828501612745565b91505092915050565b60006020828403121561287b57600080fd5b60006128898482850161275a565b91505092915050565b600080604083850312156128a557600080fd5b60006128b385828601612730565b92505060206128c485828601612730565b9150509250929050565b6000806000606084860312156128e357600080fd5b60006128f186828701612730565b935050602061290286828701612730565b9250506040612913868287016127ed565b9150509250925092565b6000806040838503121561293057600080fd5b600061293e85828601612730565b925050602061294f858286016127c3565b9150509250929050565b6000806040838503121561296c57600080fd5b600061297a85828601612730565b925050602061298b858286016127ed565b9150509250929050565b6000602082840312156129a757600080fd5b600082013567ffffffffffffffff8111156129c157600080fd5b6129cd8482850161276f565b91505092915050565b6000602082840312156129e857600080fd5b600082015167ffffffffffffffff811115612a0257600080fd5b612a0e84828501612799565b91505092915050565b600060208284031215612a2957600080fd5b6000612a37848285016127d8565b91505092915050565b600060208284031215612a5257600080fd5b6000612a60848285016127ed565b91505092915050565b6000612a758383612a9f565b60208301905092915050565b612a8a816135d6565b82525050565b612a9981613581565b82525050565b612aa88161356f565b82525050565b612ab78161356f565b82525050565b6000612ac882613415565b612ad28185613438565b9350612add83613405565b8060005b83811015612b0e578151612af58882612a69565b9750612b008361342b565b925050600181019050612ae1565b5085935050505092915050565b612b2481613593565b82525050565b612b33816135e8565b82525050565b612b428161360c565b82525050565b6000612b5382613420565b612b5d8185613449565b9350612b6d818560208601613642565b612b768161378d565b840191505092915050565b6000612b8e602383613449565b91507f45524332303a207472616e7366657220746f20746865207a65726f206164647260008301527f65737300000000000000000000000000000000000000000000000000000000006020830152604082019050919050565b6000612bf4602683613449565b91507f4f776e61626c653a206e6577206f776e657220697320746865207a65726f206160008301527f64647265737300000000000000000000000000000000000000000000000000006020830152604082019050919050565b6000612c5a602283613449565b91507f45524332303a20617070726f766520746f20746865207a65726f20616464726560008301527f73730000000000000000000000000000000000000000000000000000000000006020830152604082019050919050565b6000612cc0600883613449565b91507f4e6f74204f70656e0000000000000000000000000000000000000000000000006000830152602082019050919050565b6000612d00602683613449565b91507f45524332303a207472616e7366657220616d6f756e742065786365656473206260008301527f616c616e636500000000000000000000000000000000000000000000000000006020830152604082019050919050565b6000612d66601e83613449565b91507f4d696e696d756d206d7573742062652067726561746572207468616e203000006000830152602082019050919050565b6000612da6602483613449565b91507f4d6178696d756d206d7573742062652067726561746572207468616e206d696e60008301527f696d756d000000000000000000000000000000000000000000000000000000006020830152604082019050919050565b6000612e0c602883613449565b91507f45524332303a207472616e7366657220616d6f756e742065786365656473206160008301527f6c6c6f77616e63650000000000000000000000000000000000000000000000006020830152604082019050919050565b6000612e72602083613449565b91507f4f776e61626c653a2063616c6c6572206973206e6f7420746865206f776e65726000830152602082019050919050565b6000612eb2602583613449565b91507f45524332303a207472616e736665722066726f6d20746865207a65726f20616460008301527f64726573730000000000000000000000000000000000000000000000000000006020830152604082019050919050565b6000612f18601c83613449565b91507f54686520627579206665652069732063617070656420617420313025000000006000830152602082019050919050565b6000612f58602483613449565b91507f45524332303a20617070726f76652066726f6d20746865207a65726f2061646460008301527f72657373000000000000000000000000000000000000000000000000000000006020830152604082019050919050565b6000612fbe601d83613449565b91507f5468652073656c6c2066656520697320636170706564206174203130250000006000830152602082019050919050565b6000612ffe602583613449565b91507f45524332303a2064656372656173656420616c6c6f77616e63652062656c6f7760008301527f207a65726f0000000000000000000000000000000000000000000000000000006020830152604082019050919050565b613060816135bf565b82525050565b61306f816135c9565b82525050565b600060208201905061308a6000830184612aae565b92915050565b60006020820190506130a56000830184612a90565b92915050565b60006040820190506130c06000830185612a81565b6130cd6020830184613057565b9392505050565b60006020820190506130e96000830184612b1b565b92915050565b60006020820190506131046000830184612b2a565b92915050565b600060208201905081810360008301526131248184612b48565b905092915050565b6000602082019050818103600083015261314581612b81565b9050919050565b6000602082019050818103600083015261316581612be7565b9050919050565b6000602082019050818103600083015261318581612c4d565b9050919050565b600060208201905081810360008301526131a581612cb3565b9050919050565b600060208201905081810360008301526131c581612cf3565b9050919050565b600060208201905081810360008301526131e581612d59565b9050919050565b6000602082019050818103600083015261320581612d99565b9050919050565b6000602082019050818103600083015261322581612dff565b9050919050565b6000602082019050818103600083015261324581612e65565b9050919050565b6000602082019050818103600083015261326581612ea5565b9050919050565b6000602082019050818103600083015261328581612f0b565b9050919050565b600060208201905081810360008301526132a581612f4b565b9050919050565b600060208201905081810360008301526132c581612fb1565b9050919050565b600060208201905081810360008301526132e581612ff1565b9050919050565b60006020820190506133016000830184613057565b92915050565b600060a08201905061331c6000830188613057565b6133296020830187612b39565b818103604083015261333b8186612abd565b905061334a6060830185612aae565b6133576080830184613057565b9695505050505050565b60006020820190506133766000830184613066565b92915050565b6000604051905081810181811067ffffffffffffffff821117156133a3576133a261375e565b5b8060405250919050565b600067ffffffffffffffff8211156133c8576133c761375e565b5b602082029050602081019050919050565b600067ffffffffffffffff8211156133f4576133f361375e565b5b602082029050602081019050919050565b6000819050602082019050919050565b600081519050919050565b600081519050919050565b6000602082019050919050565b600082825260208201905092915050565b600082825260208201905092915050565b6000613465826135bf565b9150613470836135bf565b9250827fffffffffffffffffffffffffffffffffffffffffffffffffffffffffffffffff038211156134a5576134a46136d1565b5b828201905092915050565b60006134bb826135bf565b91506134c6836135bf565b9250826134d6576134d5613700565b5b828204905092915050565b60006134ec826135bf565b91506134f7836135bf565b9250817fffffffffffffffffffffffffffffffffffffffffffffffffffffffffffffffff04831182151516156135305761352f6136d1565b5b828202905092915050565b6000613546826135bf565b9150613551836135bf565b925082821015613564576135636136d1565b5b828203905092915050565b600061357a8261359f565b9050919050565b600061358c8261359f565b9050919050565b60008115159050919050565b600073ffffffffffffffffffffffffffffffffffffffff82169050919050565b6000819050919050565b600060ff82169050919050565b60006135e18261361e565b9050919050565b60006135f3826135fa565b9050919050565b60006136058261359f565b9050919050565b6000613617826135bf565b9050919050565b600061362982613630565b9050919050565b600061363b8261359f565b9050919050565b60005b83811015613660578082015181840152602081019050613645565b8381111561366f576000848401525b50505050565b6000600282049050600182168061368d57607f821691505b602082108114156136a1576136a061372f565b5b50919050565b60006136b2826135c9565b915060ff8214156136c6576136c56136d1565b5b600182019050919050565b7f4e487b7100000000000000000000000000000000000000000000000000000000600052601160045260246000fd5b7f4e487b7100000000000000000000000000000000000000000000000000000000600052601260045260246000fd5b7f4e487b7100000000000000000000000000000000000000000000000000000000600052602260045260246000fd5b7f4e487b7100000000000000000000000000000000000000000000000000000000600052604160045260246000fd5b6000601f19601f8301169050919050565b6137a78161356f565b81146137b257600080fd5b50565b6137be81613581565b81146137c957600080fd5b50565b6137d581613593565b81146137e057600080fd5b50565b6137ec816135bf565b81146137f757600080fd5b5056fea26469706673582212203ab00c5f5bbca14375c9789977f2a9692c943fa935eeaf2bf40a6da9bcf8443964736f6c63430008000033",
  "linkReferences": {},
  "deployedLinkReferences": {}
}