{
  "_format": "hh-sol-artifact-1",
  "contractName": "SafeToken",
  "sourceName": "contracts/SafeToken.sol",
  "abi": [
    {
      "inputs": [],
      "stateMutability": "nonpayable",
      "type": "constructor"
    },
    {
      "anonymous": false,
      "inputs": [
        {
          "indexed": true,
          "internalType": "address",
          "name": "previousOwner",
          "type": "address"
        },
        {
          "indexed": true,
          "internalType": "address",
          "name": "newOwner",
          "type": "address"
        }
      ],
      "name": "OwnershipTransferred",
      "type": "event"
    },
    {
      "inputs": [],
      "name": "owner",
      "outputs": [
        {
          "internalType": "address",
          "name": "",
          "type": "address"
        }
      ],
      "stateMutability": "view",
      "type": "function"
    },
    {
      "inputs": [],
      "name": "renounceOwnership",
      "outputs": [],
      "stateMutability": "nonpayable",
      "type": "function"
    },
    {
      "inputs": [
        {
          "internalType": "address payable",
          "name": "_safeManager",
          "type": "address"
        }
      ],
      "name": "setSafeManager",
      "outputs": [],
      "stateMutability": "nonpayable",
      "type": "function"
    },
    {
      "inputs": [
        {
          "internalType": "address",
          "name": "newOwner",
          "type": "address"
        }
      ],
      "name": "transferOwnership",
      "outputs": [],
      "stateMutability": "nonpayable",
      "type": "function"
    },
    {
      "inputs": [
        {
          "internalType": "address",
          "name": "_token",
          "type": "address"
        },
        {
          "internalType": "uint256",
          "name": "_amount",
          "type": "uint256"
        }
      ],
      "name": "withdraw",
      "outputs": [],
      "stateMutability": "nonpayable",
      "type": "function"
    },
    {
      "inputs": [
        {
          "internalType": "uint256",
          "name": "_amount",
          "type": "uint256"
        }
      ],
      "name": "withdrawBNB",
      "outputs": [],
      "stateMutability": "nonpayable",
      "type": "function"
    }
  ],
  "bytecode": "0x608060405234801561001057600080fd5b5061002d61002261007360201b60201c565b61007b60201b60201c565b33600160006101000a81548173ffffffffffffffffffffffffffffffffffffffff021916908373ffffffffffffffffffffffffffffffffffffffff16021790555061013f565b600033905090565b60008060009054906101000a900473ffffffffffffffffffffffffffffffffffffffff169050816000806101000a81548173ffffffffffffffffffffffffffffffffffffffff021916908373ffffffffffffffffffffffffffffffffffffffff1602179055508173ffffffffffffffffffffffffffffffffffffffff168173ffffffffffffffffffffffffffffffffffffffff167f8be0079c531659141344cd1fd0a4f28419497f9722a3daafe3b4186f6b6457e060405160405180910390a35050565b6109c68061014e6000396000f3fe608060405234801561001057600080fd5b50600436106100625760003560e01c8063127f4b2e14610067578063715018a6146100835780638da5cb5b1461008d57806391b32b32146100ab578063f2fde38b146100c7578063f3fef3a3146100e3575b600080fd5b610081600480360381019061007c9190610713565b6100ff565b005b61008b6101c5565b005b61009561024d565b6040516100a2919061080f565b60405180910390f35b6100c560048036038101906100c09190610685565b610276565b005b6100e160048036038101906100dc919061065c565b610336565b005b6100fd60048036038101906100f891906106ae565b61042e565b005b600160009054906101000a900473ffffffffffffffffffffffffffffffffffffffff1673ffffffffffffffffffffffffffffffffffffffff163373ffffffffffffffffffffffffffffffffffffffff161461015957600080fd5b600160009054906101000a900473ffffffffffffffffffffffffffffffffffffffff1673ffffffffffffffffffffffffffffffffffffffff166108fc829081150290604051600060405180830381858888f193505050501580156101c1573d6000803e3d6000fd5b5050565b6101cd61053c565b73ffffffffffffffffffffffffffffffffffffffff166101eb61024d565b73ffffffffffffffffffffffffffffffffffffffff1614610241576040517f08c379a000000000000000000000000000000000000000000000000000000000815260040161023890610873565b60405180910390fd5b61024b6000610544565b565b60008060009054906101000a900473ffffffffffffffffffffffffffffffffffffffff16905090565b61027e61053c565b73ffffffffffffffffffffffffffffffffffffffff1661029c61024d565b73ffffffffffffffffffffffffffffffffffffffff16146102f2576040517f08c379a00000000000000000000000000000000000000000000000000000000081526004016102e990610873565b60405180910390fd5b80600160006101000a81548173ffffffffffffffffffffffffffffffffffffffff021916908373ffffffffffffffffffffffffffffffffffffffff16021790555050565b61033e61053c565b73ffffffffffffffffffffffffffffffffffffffff1661035c61024d565b73ffffffffffffffffffffffffffffffffffffffff16146103b2576040517f08c379a00000000000000000000000000000000000000000000000000000000081526004016103a990610873565b60405180910390fd5b600073ffffffffffffffffffffffffffffffffffffffff168173ffffffffffffffffffffffffffffffffffffffff161415610422576040517f08c379a000000000000000000000000000000000000000000000000000000000815260040161041990610853565b60405180910390fd5b61042b81610544565b50565b600160009054906101000a900473ffffffffffffffffffffffffffffffffffffffff1673ffffffffffffffffffffffffffffffffffffffff163373ffffffffffffffffffffffffffffffffffffffff161461048857600080fd5b8173ffffffffffffffffffffffffffffffffffffffff1663a9059cbb600160009054906101000a900473ffffffffffffffffffffffffffffffffffffffff16836040518363ffffffff1660e01b81526004016104e592919061082a565b602060405180830381600087803b1580156104ff57600080fd5b505af1158015610513573d6000803e3d6000fd5b505050506040513d601f19601f8201168201806040525081019061053791906106ea565b505050565b600033905090565b60008060009054906101000a900473ffffffffffffffffffffffffffffffffffffffff169050816000806101000a81548173ffffffffffffffffffffffffffffffffffffffff021916908373ffffffffffffffffffffffffffffffffffffffff1602179055508173ffffffffffffffffffffffffffffffffffffffff168173ffffffffffffffffffffffffffffffffffffffff167f8be0079c531659141344cd1fd0a4f28419497f9722a3daafe3b4186f6b6457e060405160405180910390a35050565b60008135905061061781610934565b92915050565b60008135905061062c8161094b565b92915050565b60008151905061064181610962565b92915050565b60008135905061065681610979565b92915050565b60006020828403121561066e57600080fd5b600061067c84828501610608565b91505092915050565b60006020828403121561069757600080fd5b60006106a58482850161061d565b91505092915050565b600080604083850312156106c157600080fd5b60006106cf85828601610608565b92505060206106e085828601610647565b9150509250929050565b6000602082840312156106fc57600080fd5b600061070a84828501610632565b91505092915050565b60006020828403121561072557600080fd5b600061073384828501610647565b91505092915050565b610745816108fe565b82525050565b610754816108a4565b82525050565b6000610767602683610893565b91507f4f776e61626c653a206e6577206f776e657220697320746865207a65726f206160008301527f64647265737300000000000000000000000000000000000000000000000000006020830152604082019050919050565b60006107cd602083610893565b91507f4f776e61626c653a2063616c6c6572206973206e6f7420746865206f776e65726000830152602082019050919050565b610809816108f4565b82525050565b6000602082019050610824600083018461074b565b92915050565b600060408201905061083f600083018561073c565b61084c6020830184610800565b9392505050565b6000602082019050818103600083015261086c8161075a565b9050919050565b6000602082019050818103600083015261088c816107c0565b9050919050565b600082825260208201905092915050565b60006108af826108d4565b9050919050565b60006108c1826108d4565b9050919050565b60008115159050919050565b600073ffffffffffffffffffffffffffffffffffffffff82169050919050565b6000819050919050565b600061090982610910565b9050919050565b600061091b82610922565b9050919050565b600061092d826108d4565b9050919050565b61093d816108a4565b811461094857600080fd5b50565b610954816108b6565b811461095f57600080fd5b50565b61096b816108c8565b811461097657600080fd5b50565b610982816108f4565b811461098d57600080fd5b5056fea2646970667358221220c61fd76e1e385d9f559837cd59ad85da0afbf6d05ee47a1f85cfa1d1b18e139664736f6c63430008000033",
  "linkReferences": {},
  "deployedLinkReferences": {}
}