{
  "_format": "hh-sol-artifact-1",
  "contractName": "LockToken",
  "sourceName": "contracts/LockToken.sol",
  "abi": [
    {
      "inputs": [],
      "stateMutability": "nonpayable",
      "type": "constructor"
    },
    {
      "anonymous": false,
      "inputs": [
        {
          "indexed": true,
          "internalType": "address",
          "name": "previousOwner",
          "type": "address"
        },
        {
          "indexed": true,
          "internalType": "address",
          "name": "newOwner",
          "type": "address"
        }
      ],
      "name": "OwnershipTransferred",
      "type": "event"
    },
    {
      "inputs": [
        {
          "internalType": "address[]",
          "name": "_users",
          "type": "address[]"
        }
      ],
      "name": "includeToWhiteList",
      "outputs": [],
      "stateMutability": "nonpayable",
      "type": "function"
    },
    {
      "inputs": [],
      "name": "isOpen",
      "outputs": [
        {
          "internalType": "bool",
          "name": "",
          "type": "bool"
        }
      ],
      "stateMutability": "view",
      "type": "function"
    },
    {
      "inputs": [],
      "name": "openTrade",
      "outputs": [],
      "stateMutability": "nonpayable",
      "type": "function"
    },
    {
      "inputs": [],
      "name": "owner",
      "outputs": [
        {
          "internalType": "address",
          "name": "",
          "type": "address"
        }
      ],
      "stateMutability": "view",
      "type": "function"
    },
    {
      "inputs": [],
      "name": "renounceOwnership",
      "outputs": [],
      "stateMutability": "nonpayable",
      "type": "function"
    },
    {
      "inputs": [
        {
          "internalType": "address",
          "name": "newOwner",
          "type": "address"
        }
      ],
      "name": "transferOwnership",
      "outputs": [],
      "stateMutability": "nonpayable",
      "type": "function"
    }
  ],
  "bytecode": "0x608060405260008060146101000a81548160ff02191690831515021790555034801561002a57600080fd5b5061004761003c6100fa60201b60201c565b61010260201b60201c565b60018060003373ffffffffffffffffffffffffffffffffffffffff1673ffffffffffffffffffffffffffffffffffffffff16815260200190815260200160002060006101000a81548160ff02191690831515021790555060018060003073ffffffffffffffffffffffffffffffffffffffff1673ffffffffffffffffffffffffffffffffffffffff16815260200190815260200160002060006101000a81548160ff0219169083151502179055506101c6565b600033905090565b60008060009054906101000a900473ffffffffffffffffffffffffffffffffffffffff169050816000806101000a81548173ffffffffffffffffffffffffffffffffffffffff021916908373ffffffffffffffffffffffffffffffffffffffff1602179055508173ffffffffffffffffffffffffffffffffffffffff168173ffffffffffffffffffffffffffffffffffffffff167f8be0079c531659141344cd1fd0a4f28419497f9722a3daafe3b4186f6b6457e060405160405180910390a35050565b610929806101d56000396000f3fe608060405234801561001057600080fd5b50600436106100625760003560e01c80630b6bb6f51461006757806347535d7b14610083578063715018a6146100a15780638da5cb5b146100ab578063f2fde38b146100c9578063fb201b1d146100e5575b600080fd5b610081600480360381019061007c9190610620565b6100ef565b005b61008b61022b565b6040516100989190610740565b60405180910390f35b6100a961023e565b005b6100b36102c6565b6040516100c09190610725565b60405180910390f35b6100e360048036038101906100de91906105f7565b6102ef565b005b6100ed6103e7565b005b6100f7610480565b73ffffffffffffffffffffffffffffffffffffffff166101156102c6565b73ffffffffffffffffffffffffffffffffffffffff161461016b576040517f08c379a00000000000000000000000000000000000000000000000000000000081526004016101629061077b565b60405180910390fd5b60005b81518160ff161015610227576001806000848460ff16815181106101bb577f4e487b7100000000000000000000000000000000000000000000000000000000600052603260045260246000fd5b602002602001015173ffffffffffffffffffffffffffffffffffffffff1673ffffffffffffffffffffffffffffffffffffffff16815260200190815260200160002060006101000a81548160ff021916908315150217905550808061021f90610854565b91505061016e565b5050565b600060149054906101000a900460ff1681565b610246610480565b73ffffffffffffffffffffffffffffffffffffffff166102646102c6565b73ffffffffffffffffffffffffffffffffffffffff16146102ba576040517f08c379a00000000000000000000000000000000000000000000000000000000081526004016102b19061077b565b60405180910390fd5b6102c46000610488565b565b60008060009054906101000a900473ffffffffffffffffffffffffffffffffffffffff16905090565b6102f7610480565b73ffffffffffffffffffffffffffffffffffffffff166103156102c6565b73ffffffffffffffffffffffffffffffffffffffff161461036b576040517f08c379a00000000000000000000000000000000000000000000000000000000081526004016103629061077b565b60405180910390fd5b600073ffffffffffffffffffffffffffffffffffffffff168173ffffffffffffffffffffffffffffffffffffffff1614156103db576040517f08c379a00000000000000000000000000000000000000000000000000000000081526004016103d29061075b565b60405180910390fd5b6103e481610488565b50565b6103ef610480565b73ffffffffffffffffffffffffffffffffffffffff1661040d6102c6565b73ffffffffffffffffffffffffffffffffffffffff1614610463576040517f08c379a000000000000000000000000000000000000000000000000000000000815260040161045a9061077b565b60405180910390fd5b6001600060146101000a81548160ff021916908315150217905550565b600033905090565b60008060009054906101000a900473ffffffffffffffffffffffffffffffffffffffff169050816000806101000a81548173ffffffffffffffffffffffffffffffffffffffff021916908373ffffffffffffffffffffffffffffffffffffffff1602179055508173ffffffffffffffffffffffffffffffffffffffff168173ffffffffffffffffffffffffffffffffffffffff167f8be0079c531659141344cd1fd0a4f28419497f9722a3daafe3b4186f6b6457e060405160405180910390a35050565b600061055f61055a846107cc565b61079b565b9050808382526020820190508285602086028201111561057e57600080fd5b60005b858110156105ae578161059488826105b8565b845260208401935060208301925050600181019050610581565b5050509392505050565b6000813590506105c7816108dc565b92915050565b600082601f8301126105de57600080fd5b81356105ee84826020860161054c565b91505092915050565b60006020828403121561060957600080fd5b6000610617848285016105b8565b91505092915050565b60006020828403121561063257600080fd5b600082013567ffffffffffffffff81111561064c57600080fd5b610658848285016105cd565b91505092915050565b61066a81610809565b82525050565b6106798161081b565b82525050565b600061068c6026836107f8565b91507f4f776e61626c653a206e6577206f776e657220697320746865207a65726f206160008301527f64647265737300000000000000000000000000000000000000000000000000006020830152604082019050919050565b60006106f26020836107f8565b91507f4f776e61626c653a2063616c6c6572206973206e6f7420746865206f776e65726000830152602082019050919050565b600060208201905061073a6000830184610661565b92915050565b60006020820190506107556000830184610670565b92915050565b600060208201905081810360008301526107748161067f565b9050919050565b60006020820190508181036000830152610794816106e5565b9050919050565b6000604051905081810181811067ffffffffffffffff821117156107c2576107c16108ad565b5b8060405250919050565b600067ffffffffffffffff8211156107e7576107e66108ad565b5b602082029050602081019050919050565b600082825260208201905092915050565b600061081482610827565b9050919050565b60008115159050919050565b600073ffffffffffffffffffffffffffffffffffffffff82169050919050565b600060ff82169050919050565b600061085f82610847565b915060ff8214156108735761087261087e565b5b600182019050919050565b7f4e487b7100000000000000000000000000000000000000000000000000000000600052601160045260246000fd5b7f4e487b7100000000000000000000000000000000000000000000000000000000600052604160045260246000fd5b6108e581610809565b81146108f057600080fd5b5056fea2646970667358221220a1b6ce9a0997126bcc1c17a59fc0091a3bf2a83be7afb2f56af392b95b768a7c64736f6c63430008000033",
  "linkReferences": {},
  "deployedLinkReferences": {}
}